:100000000C942A000C943C000C943C000C943C0092
:100010000C943C000C943C000C943C000C943C0070
:100020000C943C000C943C000C943C000C943C0060
:100030000C943C000C943C000C943C000C943C0050
:100040000C9465000C943C000C943C000C943C0017
:100050000C943C0011241FBECFE5D8E0DEBFCDBF1D
:1000600020E0A0E6B0E001C01D92A836B207E1F79B
:100070000E9453000C9492000C940000E0E6F0E023
:100080002081318180E092E0821B930B93838283F5
:1000900026813781280F391F378326832FEF2CBF06
:1000A00095838483089583B7886683BF3E9A86B11B
:1000B000886886B9E0E6F0E015821482178216821D
:1000C0008FEF8CBF7894369AFFCF1F920F920FB6A6
:1000D0000F9211242F933F934F935F936F937F93CE
:1000E0008F939F93AF93BF93EF93FF9325B184B109
:1000F00090E0922B90936100809360000E943E00FC
:10010000369AFF91EF91BF91AF919F918F917F911F
:100110006F915F914F913F912F910F900FBE0F9074
:080120001F901895F894FFCF21
:00000001FF
