:1000000009C016C015C014C013C012C011C010C062
:100010000FC022C011241FBECFE9CDBF20E0A0E653
:10002000B0E001C01D92A336B207E1F711D067C05E
:10003000E7CF8091620086BF08958FB581608FBD44
:1000400084EB80936200F5DF0895389A309A089522
:10005000F4DFFBDF7894FFCF1F920F920FB60F9261
:1000600011242F933F934F935F936F937F938F93BD
:100070009F93AF93BF93EF93FF9385B124B12295E4
:1000800026952695237090E0880F991F880F991F59
:10009000822B9C01220F331F220F331F280F391F81
:1000A000A901440F551F440F551F240F351F220F60
:1000B000331F2115304428F4909361008093600031
:1000C00006C083E391E0909361008093600080918B
:1000D00060008695869580936200ABDFFF91EF917B
:1000E000BF91AF919F918F917F916F915F914F9150
:1000F0003F912F910F900FBE0F901F901895F8947D
:02010000FFCF2F
:00000001FF
