S01300004C43445F54657374696E672E7372656301
S11300000C942A000C943F000C943F000C943F0085
S11300100C943F000C943F000C943F000C943F0060
S11300200C943F000C943F000C943F000C943F0050
S11300300C943F000C943F000C943F000C943F0040
S11300400C943F000C943F000C943F000C943F0030
S11300500C943F0011241FBECFE5D8E0DEBFCDBF16
S113006010E0A0E6B0E0EAE2F3E002C005900D92F1
S1130070A038B107D9F70E9411010C9493010C9494
S1130080000017BA979A9298C79B06C0959A0000E9
S113009000009598C799FACF8FEF87BB0895CF9347
S11300A0C82F0E944100C8BB9798929A959A000065
S11300B00000959818BACF910895CF93C82F0E9445
S11300C04100C8BB9098959A00000000959818BA12
S11300D0CF910895889A85EA9EE00197F1F700C0D0
S11300E0000081E00E945D0083EF91E00197F1F749
S11300F000C0000088E30E945D0083ED90E3019757
S1130100F1F700C000008CE00E945D0083ED90E3F5
S11301100197F1F700C0000008951F93CF93DF9378
S1130120CDB7DEB7A5970FB6F894DEBF0FBECDBF2F
S1130130162F98E0E0E6F0E0DE01169601900D92AD
S11301409A95E1F7FE013E9698E0DF011D929A959B
S1130150E9F79BE0E0E7F0E0DE01569601900D92AE
S11301609A95E1F7FE01B19695E0DF011D929A950B
S1130170E9F74AE050E0BE016F5F7F4F90E00E94D4
S11301805301BE016F5F7F4FCE0106960E94480166
S11301904AE050E0BE016F5F7F4F812F90E00E94E4
S11301A05301BE016F5F7F4FCE0146960E94480106
S11301B081E00E945D0083EF91E00197F1F700C0B8
S11301C0000080E80E945D008E81882369F010E0C1
S11301D00E944F001F5FE6E0F0E0EC0FFD1FE10F0F
S11301E0F11D80818111F4CF80EC0E945D008E8925
S11301F0882369F010E00E944F001F5FE6E1F0E001
S1130200EC0FFD1FE10FF11D80818111F4CFA59644
S11302100FB6F894DEBF0FBECDBFDF91CF911F9113
S113022008950E946A0064E18AE00E948D002FE92B
S113023086E891E0215080409040E1F700C0000042
S11302406CE38FE00E948D002FE986E891E0215055
S113025080409040E1F700C0000063E28CE40E941B
S11302608D002FE986E891E0215080409040E1F72D
S113027000C000006BEB83E40E948D002FE986E848
S113028091E0215080409040E1F700C00000FFCF92
S1130290FB01DC010D900020E9F7119701900D920C
S11302A00020E1F708954532510520F4423010F062
S11302B00C945E01FB011082CB010895BB274A30E8
S11302C031F4992322F4BDE2909581959F4F0C94CB
S11302D06A01BB27FB015527AA27880F991FAA1F6C
S11302E0A41710F0A41B83955051B9F7A05DAA334D
S11302F008F0A95DA193009779F7B111B193119218
S1130300CB010C948301DC01FC01672F71917723ED
S1130310E1F7329704C07C916D9370836291AE17BC
S10D0320BF07C8F30895F894FFCF57
S113032A54656D70203D20000000000000000000AC
S113033A44657654656D70203D200000000000007D
S9030000FC
