S00F000050656C746965722E7372656340
S11300000C942A000C94DE010C94F5010C940C025F
S11300100C9447000C9447000C9447000C94470040
S11300200C9447000C9447000C9447000C94470030
S11300300C9447000C9447000C9447000C94470020
S11300400C9417020C9447000C9447000C9447003E
S11300500C94470011241FBECFE5D8E0DEBFCDBF0E
S113006010E0A0E6B0E0E0EEF9E002C005900D92E9
S1130070A038B107D9F720E0A0E8B0E001C01D9294
S1130080AE38B207E1F70E94D9010C94EE040C9447
S113009000004F925F926F927F928F929F92AF92E5
S11300A0BF92CF92DF92EF92FF92CF93DF93EC0156
S11300B06091800070E08C85681B7109072E000C2C
S11300C0880B990B0E9481036B017C016C837D83F7
S11300D08E839F83288139814A815B810E946D02CE
S11300E04B015C01688379838A839B8320E030E041
S11300F040E05FE3C701B6010E9436042B013C01D6
S11301002AE939E949E95EE3C501B4010E943604EC
S11301109B01AC01C301B2010E946D024B015C0161
S1130120288539854A855B85C701B6010E946C0222
S11301302DEC3CEC4CEC5DE30E9436049B01AC01DD
S1130140C501B4010E946D0220E030E040E853E4B0
S11301500E94360420E030E040E951E40E94DE02CF
S11301604B015C0120E030E04FE753E40E9431048E
S1130170181674F020E030E0A901C501B4010E9412
S1130180D90288233CF0C501B4010E94500303C086
S11301906FEF01C060E0C886D986EA86FB866CBF33
S11301A0DF91CF91FF90EF90DF90CF90BF90AF9011
S11301B09F908F907F906F905F904F90089583B73A
S11301C0886483BF8FB581608FBD8EB588608EBD16
S11301D083B7806283BF8FB580628FBD089586B177
S11301E08F6C86B9089514BADE9ADD98AF9B06C069
S11301F0DF9A00000000DF98AF99FACF8FEF84BB3D
S11302000895CF93C82F0E94F300C5BBDE98DD9AF2
S1130210DF9A00000000DF9815BACF910895CF93BC
S1130220C82F0E94F300C5BBD898DF9A00000000D5
S1130230DF9815BACF910895D09A85EA9EE0019788
S1130240F1F700C0000081E00E940F0183EF91E00C
S11302500197F1F700C0000088E30E940F0183EDCD
S113026090E30197F1F700C000008CE00E940F01B9
S113027083ED90E30197F1F700C0000008951F9308
S1130280CF93DF93CDB7DEB7A5970FB6F894DEBF53
S11302900FBECDBF162F97E0E0E6F0E0DE01169624
S11302A001900D929A95E1F7FE013D9699E0DF01E8
S11302B01D929A95E9F79AE0E0E7F0E0DE015696A0
S11302C001900D929A95E1F7FE01B09696E0DF0158
S11302D01D929A95E9F74AE050E0BE016F5F7F4FA7
S11302E090E00E94AE04BE016F5F7F4FCE01069680
S11302F00E94A3044AE050E0BE016F5F7F4F812F4C
S113030090E00E94AE04BE016F5F7F4FCE0146961F
S11303100E94A30481E00E940F0183EF91E0019702
S1130320F1F700C0000080E80E940F018E8188234D
S113033069F010E00E9401011F5FE6E0F0E0EC0FBD
S1130340FD1FE10FF11D80818111F4CF80EC0E942B
S11303500F018E89882369F010E00E9401011F5F5C
S1130360E6E1F0E0EC0FFD1FE10FF11D808181114A
S1130370F4CFA5960FB6F894DEBF0FBECDBFDF91C4
S1130380CF911F91089585B78A6085BF8BB7806E22
S11303908BBF0E94EF000E94DF000E941C0189E1D4
S11303A0809380008FE790E099BD88BD7894369A59
S11303B008950E94C30180E090E008951F920F9277
S11303C00FB60F9211248F93809180008F5F8F312D
S11303D018F48093800003C08EE1809380008F9195
S11303E00F900FBE0F901F9018951F920F920FB68B
S11303F00F9211248F938091800081508C3018F0DB
S11304008093800003C08CE0809380008F910F90D4
S11304100FBE0F901F9018951F920F920FB60F9258
S11304201124389A0F900FBE0F901F9018951F92A9
S11304300F920FB60F9211242F933F934F935F9314
S11304406F937F938F939F93AF93BF93EF93FF9398
S113045084B195B1682F6695669570E027B181E007
S113046090E0211102C080E090E0009719F001971C
S1130470B9F01AC07727072E000C880B990B0E943D
S1130480810320E030E04AEF5FE30E9436040E94DB
S1130490500360938D0081E890E00E94490004C0FD
S11304A0772779BD68BD389860918D008091800070
S11304B00E943F01369AFF91EF91BF91AF919F91B6
S11304C08F917F916F915F914F913F912F910F90F9
S11304D00FBE0F901F9018955058BB27AA270E9453
S11304E084020C94F7030E94E90338F00E94F0039D
S11304F020F039F49F3F19F426F40C94E6030EF42B
S1130500E095E7FB0C94E003E92F0E94080458F3FC
S1130510BA17620773078407950720F079F4A6F5E4
S11305200C942A040EF4E0950B2EBA2FA02D0B0187
S1130530B90190010C01CA01A0011124FF27591B24
S113054099F0593F50F4503E68F11A16F040A22F2A
S1130550232F342F4427585FF3CF4695379527959B
S1130560A795F0405395C9F77EF41F16BA0B620B9A
S1130570730B840BBAF09150A1F0FF0FBB1F661FE1
S1130580771F881FC2F70EC0BA0F621F731F841F24
S113059048F4879577956795B795F7959E3F08F04A
S11305A0B0CF9395880F08F09927EE0F979587950C
S11305B008950E94BC0308F481E008950E94F202A9
S11305C00C94F7030E94F00358F00E94E90340F0F2
S11305D029F45F3F29F00C94E00351110C942B048F
S11305E00C94E6030E94080468F39923B1F355239D
S11305F091F3951B550BBB27AA2762177307840732
S113060038F09F5F5F4F220F331F441FAA1FA9F3C7
S113061035D00E2E3AF0E0E832D091505040E695B5
S1130620001CCAF72BD0FE2F29D0660F771F881F16
S1130630BB1F261737074807AB07B0E809F0BB0B09
S1130640802DBF01FF2793585F4F3AF09E3F51051D
S113065078F00C94E0030C942B045F3FE4F3983E91
S1130660D4F3869577956795B795F7959F5FC9F706
S1130670880F911D9695879597F90895E1E0660F87
S1130680771F881FBB1F621773078407BA0720F000
S1130690621B730B840BBA0BEE1F88F7E095089569
S11306A00E94100488F09F5798F0B92F9927B751EA
S11306B0B0F0E1F0660F771F881F991F1AF0BA9502
S11306C0C9F714C0B13091F00E942A04B1E0089532
S11306D00C942A04672F782F8827B85F39F0B93F24
S11306E0CCF3869577956795B395D9F73EF49095B5
S11306F08095709561957F4F8F4F9F4F0895E89433
S113070009C097FB3EF490958095709561957F4F55
S11307108F4F9F4F9923A9F0F92F96E9BB27939503
S1130720F695879577956795B795F111F8CFFAF413
S1130730BB0F11F460FF1BC06F5F7F4F8F4F9F4F44
S113074016C0882311F096E911C0772321F09EE8A2
S1130750872F762F05C0662371F096E8862F70E008
S113076060E02AF09A95660F771F881FDAF7880FE2
S11307709695879597F90895990F0008550FAA0B38
S1130780E0E8FEEF16161706E807F907C0F01216A0
S11307901306E407F50798F0621B730B840B950BA3
S11307A039F40A2661F0232B242B252B21F40895F8
S11307B00A2609F4A140A6958FEF811D811D089595
S11307C097F99F6780E870E060E008959FEF80EC00
S11307D0089500240A9416161706180609060895A3
S11307E000240A9412161306140605060895092E09
S11307F00394000C11F4882352F0BB0F40F4BF2B78
S113080011F460FF04C06F5F7F4F8F4F9F4F0895B7
S113081057FD9058440F551F59F05F3F71F04795AD
S1130820880F97FB991F61F09F3F79F08795089592
S1130830121613061406551FF2CF4695F1DF08C0B1
S1130840161617061806991FF1CF869571056105CE
S113085008940895E894BB2766277727CB0197F976
S113086008950E94BC0308F48FEF08950E94490480
S11308700C94F7030E94E90338F00E94F00320F07F
S1130880952311F00C94E0030C94E60311240C94CA
S11308902B040E94080470F3959FC1F3950F50E058
S11308A0551F629FF001729FBB27F00DB11D639F1E
S11308B0AA27F00DB11DAA1F649F6627B00DA11DC4
S11308C0661F829F2227B00DA11D621F739FB00D6A
S11308D0A11D621F839FA00D611D221F749F3327DA
S11308E0A00D611D231F849F600D211D822F762F73
S11308F06A2F11249F5750409AF0F1F088234AF050
S1130900EE0FFF1FBB1F661F771F881F91505040BB
S1130910A9F79E3F510580F00C94E0030C942B043E
S11309205F3FE4F3983ED4F3869577956795B79542
S1130930F795E7959F5FC1F7FE2B880F911D96955C
S1130940879597F90895FB01DC010D900020E9F7E4
S1130950119701900D920020E1F708954532510559
S113096020F4423010F00C94B904FB011082CB0146
S11309700895BB274A3031F4992322F4BDE29095BF
S113098081959F4F0C94C504BB27FB015527AA27CB
S1130990880F991FAA1FA41710F0A41B8395505108
S11309A0B9F7A05DAA3308F0A95DA193009779F780
S11309B0B111B1931192CB010C94DE04DC01FC0162
S11309C0672F71917723E1F7329704C07C916D937F
S11309D070836291AE17BF07C8F30895F894FFCFF0
S11309E054656D703A200000000000000000000013
S11309F044657654656D703A2000000000000000E4
S9030000FC
