S01100004275636B426F6F73742E7372656387
S113000009C00EC00DC00CC00BC00AC009C008C096
S113001007C018C011241FBECFE9CDBF02D02FC026
S1130020EFCFB89A8FB583688FBD83B7896083BFDC
S113003016BE87B1816287B986B18C6886B9789417
S1130040369AFFCF1F920F920FB60F9211242F935F
S11300508F939F9385B124B122952695269523707D
S113006090E0880F991F880F991F822B86BF9F915C
S11300708F912F910F900FBE0F901F901895F894A9
S1050080FFCFAC
S9030000FC
