S00A000052582E7372656370
S11300000C942A000C9434000C9434000C943400A6
S11300100C9434000C9434000C9434000C9434008C
S11300200C9434000C9434000C9434000C9434007C
S11300300C9434000C9444000C9434000C9434005C
S11300400C9434000C9434000C9434000C9434005C
S11300500C94340011241FBECFE5D8E0DEBFCDBF21
S11300600E9495000C949B000C94000010BC83E348
S113007089B980B5866880BD8AB180698AB90895D6
S11300805F9BFECF8CB108951F920F920FB60F9213
S113009011242F933F934F935F936F937F938F9389
S11300A09F93AF93BF93CF93DF93EF93FF930E94FC
S11300B04000D82F0E944000C82F0E944000482FC3
S11300C050E02C2F30E02D0F311D42175307D1F48F
S11300D0C13271F028F4C13141F0CB3161F012C06A
S11300E0CB3261F0C13369F00DC089E088BB0AC02E
S11300F086E088BB07C08AE088BB04C085E088BB73
S113010001C018BAFF91EF91DF91CF91BF91AF91E8
S11301109F918F917F916F915F914F913F912F911B
S11301200F900FBE0F901F9018958FE087BB7894A7
S10D01300E943600FFCFF894FFCFC1
S9030000FC
