:100000000C942A000C943F000C943F000C943F0089
:100010000C943F000C943F000C943F000C943F0064
:100020000C943F000C943F000C943F000C943F0054
:100030000C943F000C943F000C943F000C943F0044
:100040000C94C9000C943F000C943F000C943F00AA
:100050000C943F0011241FBECFE5D8E0DEBFCDBF1A
:1000600010E0A0E6B0E0E2EFF1E002C005900D92F2
:10007000AC36B107D9F70E94B4000C94F7000C9489
:100080000000959A0000000082B3807C82BB089536
:1000900017BA979A82B3887F82BBC79B04C00E941D
:1000A0004100C799FCCF8FEF87BB0895CF93C82F2E
:1000B0000E944800C8BB82B38B7782BB0E9441007C
:1000C00018BACF910895CF93C82F0E944800C8BB9B
:1000D0009798929A0E94410018BACF910895CF93B1
:1000E000DF93EC018881882331F021960E94630020
:1000F00089918111FBCFDF91CF9108958158E62F2F
:10010000F0E0E15AFF4F9081890F0E945600089558
:1001100081B3846A81BB85EA9EE00197F1F700C054
:10012000000081E00E94560083EF91E00197F1F713
:1001300000C0000088E30E94560090E19A95F1F714
:1001400000C08EE00E94560080E18A95F1F700C061
:100150000895CF93DF93EA010E947E00CE010E94B2
:100160006F00DF91CF9108950E94880046E650E02D
:1001700061E081E00E94A90049E650E062E081E090
:100180000E94A900329A3E9A339A379A7894369A06
:10019000FFCF1F920F920FB60F9211242F933F9310
:1001A0008F939F9384B125B190E0922B27B1322F8A
:1001B000317020FF03C0313049F00FC081399140C8
:1001C00010F0C09A01C0C098389A07C08139914098
:1001D00010F0C19A01C0C1983898369A9F918F91BA
:1001E0003F912F910F900FBE0F901F901895F8948C
:0201F000FFCF3F
:0C01F200004014542000583A00593A0014
:00000001FF
