:100000000C942A000C9434000C9434000C943400AA
:100010000C9434000C9434000C9434000C94340090
:100020000C9434000C9434000C9434000C94340080
:100030000C9434000C9434000C9434000C94340070
:100040000C9467000C9434000C9434000C9434002D
:100050000C94340011241FBECFE5D8E0DEBFCDBF25
:100060000E945E000C94C7000C94000010BC83E357
:1000700089B980B5866880BD539A08955D9BFECF8F
:100080008CB95E9BFECF1CB80895CF93DF93D82F19
:10009000C62F8AEA0E943E008D2F0E943E008C2FC0
:1000A0000E943E008D2F8C0F0E943E00DF91CF9169
:1000B0000895329A3E9A339A379A08958FEF87BB04
:1000C0000E9436000E9459007894369AFFCF1F9202
:1000D0000F920FB60F9211242F933F934F935F937C
:1000E0006F937F938F939F93AF93BF93EF93FF9300
:1000F00024B135B187B1982F917080FF03C0913042
:10010000D9F033C0253883E0380730F0C09A61E277
:1001100084E40E9445000EC02436310530F4C098B6
:1001200061E184E40E94450005C0C09861E384E475
:100130000E944500389A19C0253883E0380730F00E
:10014000C19A6BE284E40E9445000EC0243631055A
:1001500030F4C1986BE184E40E94450005C0C19869
:1001600061E384E40E9445003898369AFF91EF914C
:10017000BF91AF919F918F917F916F915F914F91BF
:100180003F912F910F900FBE0F901F901895F894EC
:02019000FFCF9F
:00000001FF
