S01300004544435F70726F6A6563742E73726563EF
S11300000C942A000C947C000C9488000C943F00FF
S11300100C943F000C943F000C943F000C943F0060
S11300200C943F000C943F000C943F000C943F0050
S11300300C943F000C943F000C943F000C943F0040
S11300400C94A7000C943F000C943F000C943F00C8
S11300500C943F0011241FBECFE5D8E0DEBFCDBF16
S113006010E0A0E6B0E0E0EBF1E002C005900D92F4
S1130070A236B107D9F70E9465000C94D6000C94FF
S1130080000021E030E030936100209360008CBFD9
S113009013BC089587B1806687B986B1846A86B92E
S11300A0089583B78C6683BF1CBE85B58C6685BDF9
S11300B013BC08958F9ABB9A85B7886085BF8BB7A8
S11300C0806C8BBF369A78940895B89A8B9A939AD9
S11300D00E944A000E9451000E945A0025B194B126
S11300E0220F220F892F8295869586958370822B05
S11300F00E944100369AF2CF1F920F920FB60F92D0
S113010011241CBE13BC0F900FBE0F901F901895A6
S11301101F920F920FB60F9211248F939F93809189
S1130120600090916100892B39F481E090E0909314
S113013061008093600004C010926100109260001E
S11301409F918F910F900FBE0F901F9018951F9243
S11301500F920FB60F9211242F933F934F935F93F7
S11301606F937F938F939F93AF93BF93EF93FF937B
S113017025B194B1220F220F892F829586958695F9
S11301808370822B0E944100369AFF91EF91BF91B8
S1130190AF919F918F917F916F915F914F913F911B
S11301A02F910F900FBE0F901F901895F894FFCFCA
S10501B0010048
S9030000FC
